S0030000FC
S35100000000FFFB0020F11600009D0500009D0500009D0500009D0500009D05000000000000000000000000000000000000610400009D050000000000000B0500009D0500009D0500009D0500009D050000C4
S3510000004C9D0500009D0500009D0500009D0500009D0500009D0500009D0500009D0500009D0500009D0500009D0500009D0500009D0500009D0500009D0500009D0500009D0500009D0500009D0500005C
S351000000989D0500009D0500009D0500009D0500009D0500009D0500009D0500009D0500009D0500009D0500009D0500009D0500009D0500009D0500009D0500009D0500009D0500009D0500009D05000010
S351000000E49D0500009D0500009D0500009D0500009D0500009D0500009D0500009D0500009D0500009D0500009D0500009D0500009D0500009D0500009D0500009D0500009D0500009D0500009D050000C4
S351000001309D0500009D0500009D0500009D0500009D0500009D0500009D0500009D0500009D0500009D0500009D0500009D0500009D0500009D0500009D0500009D0500009D0500009D0500009D05000077
S3510000017C9D0500009D0500009D0500009D0500009D0500009D0500009D0500009D0500009D0500009D0500009D0500009D0500009D0500009D0500009D0500009D0500009D0500009D0500009D0500002B
S351000001C89D0500009D0500009D0500009D0500009D0500009D0500009D0500009D0500009D0500009D0500009D0500009D0500009D0500009D0500009D0500009D0500009D0500009D0500009D050000DF
S351000002149D0500009D0500009D0500009D0500009D0500009D0500009D0500009D0500009D0500009D0500009D0500009D0500009D0500009D0500009D0500009D0500009D0500009D0500009D05000092
S351000002609D0500009D0500009D0500009D0500009D0500009D0500009D0500009D0500009D0500009D0500009D0500009D0500009D0500009D0500009D0500009D0500009D0500009D0500009D05000046
S351000002AC9D0500009D0500009D0500009D0500009D0500009D0500009D0500009D0500009D0500009D0500009D0500009D0500009D0500009D0500009D0500009D0500009D0500009D0500009D050000FA
S351000002F89D0500009D0500009D0500009D0500009D0500009D0500009D0500009D0500009D0500009D0500009D0500009D0500009D0500009D0500009D0500009D0500009D0500009D0500009D050000AE
S351000003449D0500009D0500009D0500009D0500009D0500009D0500009D0500009D0500009D0500009D0500009D0500009D0500009D0500009D0500009D0500009D0500009D0500009D0500009D05000061
S351000003909D0500009D0500009D0500009D0500009D0500009D0500009D0500009D0500009D0500009D0500009D0500009D0500009D0500009D0500009D0500009D0500009D0500009D0500009D05000015
S329000003DC9D0500009D0500009D0500009D0500009D0500009D0500009D0500009D0500009D05000045
S31500000400FFFFFFFFFFFFFFFFFFFFFFFFFEFFFFFFF7
S3510000042001DF704701DFFFF7FEBFDFF8E802D0F8000072B6B0F8181051B9D0F82410D0F81C20D2F81C30994200F0028062B603DF62B6704703DF7047FFF7FEBF02DF704772B61EF0040F0CBFEFF3088146
S3510000046CEFF30981D1F8181011F8021C032940F008804DF804ED00F02CF85DF804EB00F026B8012940F00680DFF87C02D0F8000000F048B8022940F01A80DFF86C02D0F80000D0F81C10D1F8082042F074
S351000004B80102C1F808204DF804EDD1F80420D1F80030C2F80030C3F8042000F004F85DF804EB62B670472DE90740DFF83402D0F8041011F0805F40F00A80EFF31182A2F1100280F82220DFF81C12C0F8B9
S351000005040410BDE8078072B6EFF3098CDFF80C1291F80220EFF311832CE9FC4FDFF8F001D0F80000D0F81C30C3F814C072B6D0F82410D1F800208A4240F01680D1F808105FEA01017FF4F5AF81F311882E
S35100000550DFF8CC11DFF8CC2181F8022062B6AFF3038072B6D0F82010FFF7E5BFC0F82410C0F81C20B2F82430A0F81A30D2F814C0BCE8FC4F83F311888CF30988DFF88801DFF89411C0F8041062B670476C
S3510000059C72B64DF804EDDFF87031D3F80030B3F8181001F10101A3F81810DFF874014DF8040DEFF31182EFF30581D3F834002DE90700EFF30880C3F834004FEA0100D3F830200AB900F04BB8904200F2EF
S351000005E84880D3F82C20811AC0F24380D3F838204FEAD1014FEA810152F8011009B900F038B8D1F8002042B1824200F00880D1F8101011EA010F7FF4F4AF00F02AB8D1F80C00D1F8042062B64DF8043D98
S3510000063490475DF8043B72B6BDE80700C3F834005DF8040BB3F81810491EA3F81810D3F81C20D2F8280010F4805F40F0098039B9D3F82410D1F80010914218BFFFF735FF62B65DF804FBD3F82820FFF73D
S35100000680D6BF72B62DE9F100DFF88830D3F80030D3F834C00CF1100C5CF804EBDFF8900020F00100CCF818009CE8FF005DF804CBACF1040C2CE9FF00BDE8F0008CF3088862B670472DE9024090F80010A0
S351000006CC11F0800F03BF41F0800180F8001080EA00004FF08000BDE80280EFF309807047EFF30880704780F308887047EFF30380704762B6704772B670477046704778467047EFF3148070473804FF1FD0
S3510000071800ED00E00000001020ED00E0FF00000000000008000000003706000038B588B0DFF86240DFF8625003AB022203CD03C3521EFBD128681860DFF8523000AA154603CB03C218681060DFF84600B0
S3510000076403A901F0F3FA6060DFF83E00294601F0EDFA2060606820B140F20331002201F029FA206818B1606808B1012000E0002008B0BDE838407047C0467022FF1FE8050200DC0502000000FF1F0B00B8
S351000007B0FF1F000008B5DFF876205368A3B3032832D8DFE800F0020E1A2611B140F2033101E040F202315068DFF8562001F0FCF922E011B140F2033101E040F202315068DFF8422001F0F0F916E011B116
S351000007FC40F2033101E040F202315068DFF82E2001F0E4F90AE011B140F2033101E040F202315068DFF81A2001F0D8F9BDE8084070477022FF1FFC050200040602000C06020014060200000070B586B083
S351000008480FF0DAF9014629B1DFF83E0101F0ACF9FFF700FE0122DFF83601026040F20331CAF6FE110391A2F10110049000200590002001AC224607F01FFA0020214610F04FFA014629B1DFF80A0101F079
S351000008948DF9FFF7E1FD0020DFF8FE10086001460FF01EFDDFF8F60001F080F900200FF0D5FC0028FAD0DFF8EA0001F077F9DFF8E60001F073F90020014603AA10F01EF9014631B1DFF8D20001F068F946
S351000008E0FFF7BCFD03E0DFF8CA0001F061F9002003A90FF01FFD0398C0B20090DFF8B600039BC3F30761C3F30742C3F3072301F04FF90498C0B20090DFF89E00049BC3F30761C3F30742C3F3072301F0C3
S3510000092C41F90598C0B20090DFF88600059BC3F30761C3F30742C3F3072301F033F9002001460FF0B7FC0446002001460FF0B2FC0546002001460FF0ADFC0646002001460FF0A8FCC0B20090DFF84A003F
S35100000978C4F30761C5F30742C6F3072301F014F906B0BDE870407047C0461500FF1FB423FF1F3C00FF1F9423FF1F6E00FF1F9700FF1FA800FF1FC400FF1FF900FF1FFD00FF1F1D01FF1F3D01FF1F5D01FC
S351000009C4FF1F000070B5FFF7B3FE00200421024603F088F800200321024603F083F8FFF72FFFDFF82260DFF82250DFF82240304601F0DCF8284600211BF0E2F9204601F0D5F8F4E7C0467C02FF1F8C061B
S35100000A1002008502FF1F00007CB505460E460022009200AA1BF022F8044610BB032D1FD1706801F061F80546032801D9012418E0B068DFF862101BF0C7FB20B928460121FFF7B0FE0DE0B068DFF84E1061
S35100000A5C1BF0BCFB20B928460021FFF7A5FE02E0012400E00124A4B1009828B1DFF83200316801F097F80CE0DFF82A00316801F091F8DFF8260001F08DF8DFF8220001F089F80020BDE87C407047A202D7
S35100000AA8FF1FA502FF1FA902FF1FBD02FF1FD802FF1FFA02FF1F00002DE9F8430F460022009200AA1AF0CEFF064630BBDFF8780001F06AF8DFF87450DFF87440DFF87490DFF8748012E04FF4FA7002F050
S35100000AF45BFC284698F9001001F058F8204698F9011001F053F8484698F9021001F04EF8002002F04BF801F08FF80028E5D086B1009828B1DFF83800396801F03FF808E0DFF83000396801F039F8DFF8AA
S35100000B402C0001F035F80020BDE8F8437047C0461903FF1F4E03FF1F6003FF1F6B03FF1F7C22FF1F7603FF1F8403FF1F9903FF1F70B5DFF8020101F01BF800F081F81A204BF20001C4F20B010860086876
S35100000B8C10F08000FBD04BF21005C4F20B0528681DF000F94FF60071C4F27F711EF058FC1CF0FCFF02460B464FF0663046F26661C4F20A011CF0ACFA1CF044FE1CF0EEFF49F20012CFF67E3247F23A03FA
S35100000BD8C3F6E6731BF0AEFF46F65872C0F6D4224FF2D373C3F65A731FF004F81CF02CFE06460020C4F2C81031461EF0D3F906461DF090FCDFF86A4060710020C4F2C82031461DF0FDFC1DF00DFCC0B2BC
S35100000C240A211DF005FAA1711420A5F110010860086810F08000FBD04BF21000C4F20B0000681DF0ABF84FF60071C4F27F711EF003FC01460020C4F2C8201DF0DBFC1DF063FCDFF8121008714FF4FA7034
S35100000C7002F09CFB83E7C503FF1F7C22FF1F000008B548F23C01C4F20401086840F0006008600C39086840F0006008605C20DFF8581008700420487041F23420488045F278608880182088710320C87197
S35100000CBC4FF4C020C8601F20087248724BF20000C4F20B0000F06AF84BF20000C4F20B0000F010F84BF20000C4F20B00DFF8101000F070F8BDE808407047C046B822FF1F9E22FF1F016A21F040010162F5
S35100000D08416A21F00B014162416A41F007014162416A41F080014162016811F08001FBD0416A01F04001402901D1FF207047C16C89B2826C92B2891889B2426C92B2891889B2026C92B2891889B2C26B04
S35100000D5492B2891889B2826B92B2891889B2C1F34F01C162C16E89B2826E92B2891889B2426E92B2891889B2026E92B2891889B2C26D92B2891889B2826D92B2891889B2C1F34F010163416A21F080011C
S35100000DA041620020704700000A7882604A78C2604A8882618A88C2618A790262CA794262CA6802650A7A0260497A416070470000826A0A80C26A4A80026B8A80426B8A71826BCA71C26B0A81026C4A81C9
S35100000DEC426C0A73826C4A73C26C8A73426D0A74826D4A74C26D4A82026E8A82426E8A75826ECA75C06E08767047000038B5DFF84E40DFF84E50DFF84E0000F0C3FE00F025F800F049F84C200021052293
S35100000E3800F074F895F9000000F0A8F8207095F9010000F0A3F8607095F9020000F09EF8A070E878E0704FF4967002F0A3FAE4E7C0467C22FF1FC822FF1FD803FF1F000008B5DFF83C00002100F066FFF2
S35100000E84DFF83410086048B9DFF8300000F08EFEC82002F089FA012003F0CCF8DFF81800006840F20341002200F094FEBDE808407047C046F503FF1FD022FF1FFB03FF1F08B54C200921E02200F008F83E
S35100000ED04C200721192200F003F8BDE8084070470FB41CB500A801704270DFF8344020684FF4816104AA00F06FFE206800A9022200F072FC206800F0EFFF206840F20C41002200F061FEBDE81C4004B0CA
S35100000F1C7047C046D022FF1F0FB41CB5019200A80170DFF85C4020684FF4816104AA00F04DFE206800A9012200F050FC206800F0CDFF206840F20B41002200F03FFE206840F20A4101AA00F039FE2068E5
S35100000F68DFF82410019A00F0EFFD206800F0B8FF206840F20C41002200F02AFEBDE81C4004B07047D022FF1FC822FF1F20F0400010F0200102D06FF01F010843704700000069643870470000704700008A
S35100000FB438B51D468A18521E22F00F02A2F1640402610F3121F00F01816144612046642100F010FA0020206004986060DFF8240020640598E062686840F0010060644FF08070A0646FF00200A062012065
S35100001000BDE838407047C04641380000DFF862000168D1F8A001072803D90720C1F8A00103E010B90120C1F8A001400100F0E000C8824FF0000CC02341F60041C1F6FF716A20ACEB010213700CF1010CB3
S3510000104C401EF8DC4FF0000C4FF0FF3341F68061C1F6FF710420C1EB8C0213600CF1010C401EF8DC70473804FF1F000070B5DFF85E00046800202062D4F8FC00851C280103F048FC064608B904201DE0A8
S35100001098052103F009FBC02111E036607660F581D4F8A0012818072804D2400100F0E000B08100E0B181206AB0602662103628466D1E0028E9D1206A60620020BDE8704070473804FF1F00002DE9F047CD
S351000010E482468946DFF8AE100F68D7F878610068DAF804100025324600231CF077FF4FF0FF32101A75EB010007D2C9F8002040F2E730C9F80400002039E0DAE900234FF47A74A2FB040102FB051103FB19
S351000011300411324600231CF05BFF8046224600231CF056FFC9F800006043B8EB0000C9F80400DAF808304FF4FA62A3FB020103FB051105FB0211324600231CF041FFD7F8802100231CF03CFF10F101089D
S3510000117C69414FEA580848EAC178D9F804004044C9F804000120BDE8F0477047C0463804FF1F000038B504684568D1F800C04B68B4EB0C049D41146055608368D1F808C063450AD2DFF820000068D0F822
S351000011C880011B18601E65F1000110605160A3EB0C009060BDE838407047C0463804FF1F70B586B004460E46006803AD294600F05DF8606800AC214600F0B6F828462146324600F021F806B0BDE87040CE
S351000012147047000010B5DFF830100968D1F88011D0F808C08C450CD3BCFBF1F402684368121943F10003026043606143ACEB01018160BDE8104070473804FF1F70B504684568D1F800C04B6814EB0C0425
S351000012605D41146055608368D1F808C0DFF82E000068D0F88061A6EB0C00834208D3601C45F1000110605160ACEB0600181801E003EB0C009060BDE870407047C0463804FF1F000040BA704700BA7047AC
S351000012AC80F311887047000010B5DFF82420126800248C60D2F878C1A0FB0C2300FB043304FB0C330A604B60BDE810407047C0463804FF1F10B50C4600228A60DFF87C30D3F804C0BCF1010F08D1DFF8C3
S351000012F870201268B0FBF2F200200A6048602CE0DFF86020D2F800E0BCF1020F12D14FF0000CDEF87831A0FB032100FB0C110CFB031110464FF47A7200231CF05DFE2060616012E04FF47A7CDEF8782185
S35100001344BCFBF2FCC3F800C00CFB02F2B2F57A7F02D101225A60CCE702215960D9E7BDE810407047D422FF1F3804FF1F2DE9F0410D46DFF86410D1F800800024D8F87811A0FB016700FB047704FB0177E8
S35100001390304639464FF47A7200231CF029FE28606960304639464FF47A7200231CF026FED8F88061A0FB062300FB043301FB063312F5FA7043EB04014FF47A7200231CF00FFEA860BDE8F0417047C04643
S351000013DC3804FF1F10B502F07BFF044608B900F06FF92046BDE810407047000003296FD910F0010203D0002200F8012B491E10F0020203D0002220F8022B891E8B09002221E0026000F1080C4260826041
S351000014280CF10800CCE9012200F1080C426082600CF10800CCE9012200F1080C426082600CF10800CCE9012200F1080C426082600CF10800CCF804205B1E002BDBD1C1F383020F2A36D8DFE802F0353263
S351000014742F2C292623201D1A1714110E0B08002240F8042B002240F8042B002240F8042B002240F8042B002240F8042B002240F8042B002240F8042B002240F8042B002240F8042B002240F8042B002229
S351000014C040F8042B002240F8042B002240F8042B002240F8042B002240F8042B11F0020202D0002220F8022B11F0010101D000210170704738B584460B461146032A40F2A88010F0010004D01CF8010B19
S3510000150C03F8010B511E1CF0020004D03CF8020B23F8020B891E880949E0DCF800201A600CF1080403F10805DCF804205A60DCF808209A6004F1080305F1080C62686A60A268AA6003F108040CF108058F
S351000015585A68CCF804209A68CCF8082004F1080305F1080C62686A60A268AA6003F108040CF108055A68CCF804209A68CCF8082004F1080305F1080C62686A60A268AA6003F108040CF108055A68CCF813
S351000015A404209A68CCF8082004F1080C05F1080362686A60401E0028B3D1C1F383000F2845D8DFE800F044403C3834302C2824201C1814100C085CF8040B43F8040B5CF8040B43F8040B5CF8040B43F8A1
S351000015F0040B5CF8040B43F8040B5CF8040B43F8040B5CF8040B43F8040B5CF8040B43F8040B5CF8040B43F8040B5CF8040B43F8040B5CF8040B43F8040B5CF8040B43F8040B5CF8040B43F8040B5CF831
S3510000163C040B43F8040B5CF8040B43F8040B5CF8040B43F8040B11F0020003D03CF8020B23F8020B11F0010002D09CF800001870BDE8384070470000844611F0010303D0491E535C00EB032C490805E09E
S351000016881378507840EA03208444921C0846491E0028F5D1CCF30F4050B1CCF30F0101EB000CCCF30F4018B1CCF30F0101EB000C604670474EF60851CEF200010A68086010467047DFF80C000068C06BCB
S351000016D4DFF808301847C0463804FF1F2B170000000000000000000000000000DFF83C00DFF83C10DFF83C204FF008033BB140F8042B41F8042BA3F10103FFF7F7BFEFF3088080F30988EFF3148040F0EE
S35100001720020080F314881AF015BF80F30888704780E100E080E200E0FFFFFFFF38B54EF2001CCEF2000CA0F11005FA281CD8490101F0E00305F003014FEAC10E03FA0EF425F003018C44DCF80033FF2150
S3510000176C01FA0EF123EA01012143CCF8001312B100F00AF804E000F01BF801E00C2000E00020BDE8384070474EF20012CEF20002A0F11003FA2B07D8012103F01F008140580942F8201001E00C2070472A
S351000017B8002070474EF20012CEF20002A0F11003FA2B09D8012103F01F008140580902EB8000C0F8801001E00C2070470020704708B510B90020C04308E003689B6923B92C21C1600020C04300E0984778
S35100001804BDE808407047000038B5E8B1DFF84050044614E094F9000000F01CF870B194F900107F2902D90020C04300E00846401C285C10F0010000D020312170641C94F900000028E6D10020BDE83840E4
S351000018507047C046641002007F2801D94FF0FF30411CDFF80C00405C00F001007047C046641002007F2801D94FF0FF30411CDFF80C00405C00F017007047C046641002000022DFF81CC004215CF802309F
S3510000189C834201D1012070470C32491EF6DC00207047C046E422FF1FF8B50E46154600240022DFF83C700421BB58834210D1DFF83470B8181AF022FC854207D930460C21614379181AF024FC002006E0EE
S351000018E8022004E0641C0C32491EE7DC0120BDE8F8407047E422FF1FDC22FF1F2DE9F0478146884617461E4600250BB901203EE0541EB24602E06D1C0AF1010AA54208DA9AF90000FFF7A2FF18B19AF9D6
S3510000193400003A28F1D16D1C681E30563A2814D170575C2801D02F280FD1B8F1000F02D00120C8F80000484631462A461AF026FC002009F80500284613E0B8F1000F02D00020C8F8000008981AF0CCFBA0
S351000019800546791E884205DA484608991AF0CEFB284600E00020BDE8F04770472DE9F84785B080460D4617461E4638461AF0B4FB002404940020029003940E980090404603A932463B46FFF79DFF804430
S351000019CCC1460399012900D13F185C2088F80000002088F80100012497F900002F2801D05C2803D13D46002001905CE06D1C0120019058E095F9000000284ED0AA46284604A9324600F056F8054608B384
S35100001A189AF900002E281DD19AF901002E2819D1C14514D002E0A9F10109641EC14503D099F900005C28F6D1C14504D0002009F80109641E31E0002089F801002DE00C2002902CE09AF9000038B32E2844
S35100001A6425D099F900005C2805D009F101095C2089F80000641C049AA418B4420EDA09F10109484651461AF091FB0021049809F8001008EB0400A0F1010908E00C20029007E00198012804D13D460020B1
S35100001AB00190002DA4D1029805B0BDE8F847704700230B6008E0401C0B685B1C0B60934202DD00200860704790F900301BB12F2B01D05C2BEFD190F900105C2901D02F2900D1401C7047000010B54FF087
S35100001AFC000C012400E0401C90F900102029FAD02D2902D14FF0FF34401C0A210CE090F90020302A0CDB392A0ADCA2F130030CFB01F203EB020C401C90F90020002AEED10020BCF1000F01DB0CFB04F0E1
S35100001B48BDE810407047000070B506460D461446002016B90020C04323E0B3690BB1012A14DD3068436923B92C20F0600020C04317E0B0690028304603D0491C521E984702E029462246984700280ADBBF
S35100001B94B16941B1002C01DC002004E0F16929700021B161401CBDE8704070470FB410B502A820F00304012000F0F8FFDFF81010029A231D00F0F2F9BDE8104004B07047151D000008B54FF0000C10B9F6
S35100001BE00020C04313E04B1E02D05B1E03D005E0806810600AE01168816007E00368DB6913B19847844601E040F6092C6046BDE80840704711B90020C04370478A6912B10020C0437047B0F1FF3F06D013
S35100001C2CC86101228A618A6822F008028A60704708B560B1816909B1012008E00168CB6923B1062100AA9847009800E00020BDE80840704708B510B90020C0433EE0521E04D0521E09D0521E19D025E0F6
S35100001C78002902DA0020C04332E0016121E0826912B1026902B1491E002906DA03694A42934202D20020C04322E00269511801610FE0002906DA43694A42934202D20020C04315E042695118016102E0FC
S35100001CC40020C0430EE0816909B100218161816821F0080181600168CB6913B10721002298470020BDE808407047000038B505460C4611B90020C04306E01AF00BFA024620462946FFF76EFDBDE83840DD
S35100001D10704700001CB5044611B90020C04313E00B689A6922B92C20C8600020C0430BE000AA1070084600A901229B699847012801D04FF0FF342046BDE81C4070470000F8B507460E46DFF88800046832
S35100001D5C04F5167002F06EF9D4F8745204F51D7011E0AB68BC4602E00CF1010C5B1C9CF9002022B193F9001009B18A42F4D093F9001011B12D688542EBD104F5167002F08FF904F51D70854201D10020C0
S35100001DA817E0202002F05AFC044690B1102102F07BFC2560EB685BB1204639463246984730B101F025FB204602F0EEFC002000E02046BDE8F84070473804FF1F10B504460B460AB900200DE000210170DB
S35100001DF4104621461A4600F00BF8B0F1FF3F02D194F9000000B12046BDE81040704700002DE9F84381460C4620B9002008704FF0FF303AE0A2F101080AB96FF00048484600F036F8B0F1FF3F04D10020A2
S35100001E4020704FF0FF302AE0D9F80810002701F00406202515E036B1082804D137B1641E25707F1E02E004F8010B7F1C484600F019F8B0F1FF3F04D1002020704FF0FF300DE00A2803D00D2801D0474511
S35100001E8CE3DB474502DB4946FFF7BEFE002020703846BDE8F843704708B510B90020C04318E0816921B1C26900218161104611E001684B6923B92C21C1600020C04309E000A901229847012802D100A843
S35100001ED8007801E04FF0FF30BDE808407047000038B50546002410B90020C0430EE00168CB691BB10321002298470446A86920B1284600210222FFF7A7FE2046BDE838407047000038B5054610B90020B4
S35100001F24C0430DE00168096921B902F03FFC0020C04305E088470446284602F037FC2046BDE83840704700002DE9F04180460F4616461D460024002B07DA002505E030464146B847864202D1641CAC424B
S35100001F70F7DB2046BDE8F04170470000F8B507460E461546002401E0641C6D1C95F9000028B13946B04795F900108142F4D095F9000000B1641E2046BDE8F840704700002DE9F04F9BB0834689469046D8
S35100001FBC1F460020029000240DE040B90298B0F1FF3F01D14FF0FF34204600F039BC5946C8470290641C18F9010B2528EDD198F90000252806D108F101085946C8470290641CF0E720200E900026002050
S351000020080D90089007900990069004900A90059000212EE098F900002B2808DC19DA232826DC202824DB19D023281CD020E030281EDC2D281CDB02D0302805D018E001200D9008F1010814E030200E90F3
S3510000205408F101080FE00120099008F101080AE00120089008F1010805E00120079008F1010800E0012198F9000008B10029CBD000200C9098F900002A2806D13F1D381F00680C9008F101080EE00A21F1
S351000020A006E018F9012B0C984843101830380C9098F90000302801DB3928F2DD002598F900002E281AD108F1010898F900002A2805D13F1D381F056808F101080EE00A2006E018F9012B05FB00F1511812
S351000020ECA1F1300598F90010302901DB3929F2DD0DF14C0A18F9012B5AB925205946C847641CB0F1FF3F01D14FF0FF34204600F097BB6D21682A05D06C2A03D04C2A01D06D2A02D151B218F9012B002380
S35100002138002003900F90642A26DC80F25D804E2A0DDC80F2D581492A00F3D981432AC0F2D68137D0442A4FD0492A4DD0CFE1582A0FDCB2F14F0000F1CA81DFE810F034017401C801C8013C00C801470007
S35100002184C801C8017D01632A1ED0BAE16F2A09DC80F22381692A01DC30D0B2E16E2A00F0A981AEE1702A02DC00F05881A9E1782A00F3A781732AC0F2A48116D0752A1FD0782A00F056819CE13F1D381F02
S351000021D0016813A80170C8B208B901200F90002513A8457020200E900020079096E13F1D381FD0F800A020200E90002007908DE101200390752A01D0552A01D101200A90002D01DD0120069003980028B9
S3510000221C4FD04C292AD10837A7F1080000681090381F0068119080F00000109A82F00002104301D1012000E0002040B205900020109A121A119A824107DA2D26109A821A1092119A9041119066E00998BB
S3510000226808B12B2662E0089800285FD020265DE0682905D13F1D381FB0F90000129003E03F1D381F00681290129808B9012000E0002040B205901298002803DA2D264042129043E0099808B12B263FE033
S351000022B4089800283CD020263AE068290AD13F1D381F0088129008B9012000E0002040B205902DE06C290AD13F1D381F0068129008B9012000E0002040B2059020E04C2914D10837A7F10800006810900E
S35100002300381F0068119080F00000109A82F00002104301D1012000E0002040B2059009E03F1D381F0068129008B9012000E0002040B2059000200B904C2932D14BF2B361C0F6E0510020CAF2647008E0BE
S3510000234C109A121A1092119A8A4111920B9A521C0B92109A121E119A72F10002F0DB0093109811990AF10102142300F0D9FA9AF801100B98C0B208188AF80100C0B2392806D90A388AF8010031208AF8C7
S3510000239800001DE00AF1010A1AE04CF60020C3F69A3005E01299091A12910B99491C0B9112990029F6DB084651460A22002300F04BFA9AF800100B98C0B208188AF80000002007909EE001200A90002D92
S351000023E401DD012006904C291BD10837A7F1080000681090381F0068119080F00001109880F00000084301D1012000E0002040B205900093109811995246162300F084FA18E0682905D13F1D381FB0F93D
S351000024300000129003E03F1D381F00681290129808B9012000E0002040B20590129851460B22002300F004FA032004905EE001233F1D381F00685146082200F0F9F955E001230120049001200A90002DB9
S3510000247C01DD012006900498401C049040B204904C291BD10837A7F1080000681090381F0068119080F00001109880F00000084301D1012000E0002040B205900093109811995246102300F033FA29E09B
S351000024C8682904D13F1D381F0088129003E03F1D381F00681290129808B9012000E0002040B2059012985146082200F0B5F911E03F1D381FD0F800A0CAF800406DE510465946C847641CB0F1FF3F01D12E
S351000025144FF0FF34204697E10F980AEB000103E00F98401C0F90491C08780028F8D10C98002801DA00200C90002D00DA00250020019015B90C98002844D0069850B94DB10F98A84206DD13A8824502D1D1
S351000025600F98401B82440F950698F0B10C98A84218DD0F98854203DD0C98401B019003E00C990F98081A01900598A0B9079890B1049803280FD10F9885420CDD0198401C019008E00020019005E00C98BF
S351000025AC18B101460F98081A019016B10198401E0190079850B1059840B90198401E01900498032802DA0198401E01900198002801DA00200190089860B10A9850B92B2E08D02D2E06D0584649462022C1
S351000025F80123FFF7A7FC24180D98002840F0B8800698002840D0584649462022019BFFF799FC24182B2E01D02D2E06D15846494672B20123FFF78EFC2418DFF82232DFF822220798F8B10598E8B90498C6
S35100002644401E02D0401E07D00CE0584649461A46FFF792FC241810E058464946FFF78CFC24180AE00F98281A002806DC5846494630220123FFF768FC24185846494630220F9BEB1AFFF760FC2418CAE053
S351000026900E98302837D12B2E01D02D2E06D15846494672B20123FFF751FC2418DFF8A631DFF8A6210798F0B10598E0B90498401E02D0401E07D00CE0584649461A46FFF755FC24180FE058464946FFF7D1
S351000026DC4FFC241809E00198002806DC5846494630220123FFF72CFC2418584649460E9A019BFFF725FC24188FE0584649460E9A019BFFF71DFC24182B2E01D02D2E06D15846494672B20123FFF712FCD8
S351000027282418DFF82A31DFF82A210798002800F076800598002840F072800498401E02D0401E07D00CE0584649461A46FFF712FC241864E058464946FFF70CFC24185EE05846494630220123FFF7ECFB18
S35100002774241856E02B2E01D02D2E06D15846494672B20123FFF7E0FB2418079800283ED0DFF8C2200598002839D1DFF8B6300498401E02D0401E07D00CE0584649461A46FFF7E2FB24182AE058464946E9
S351000027C0FFF7DCFB241824E0069858B10F98281A002807DC5846494630220123FFF7B6FB241816E00698A0B90E9830280AD1019800280EDC5846494630220123FFF7A6FB241806E0584649463022012329
S3510000280CFFF79EFB2418069838B15846494630220F9BEB1AFFF794FB2418584649465246FFF7A6FB24180D9800283FF4D4AB584649462022019BFFF783FB2418FFF7CBBB1BB0BDE8F04F7047C0461B0460
S35100002858FF1F1E04FF1F00002DE9F84384B000AC80460F461646002100A801700B2A13D10125601C07E008F00701303100F8011B4FEAE8086D1C9542F5DD00A890F90B1001F03301C1722DE00A2A14D1B2
S351000028A4012504F101090DE040460A211BF0C0FB01F1300009F8010B40460A211BF0B8FB80466D1CB542EFDD16E00125DFF85010DFF850C0601C0DE0002B08F00F0902D01CF9099001E011F9099000F8CF
S351000028F0019B4FEA28186D1C9542EFDD354600E06D1E60573028FBD02DB96D1C03E060576D1E07F8010B002DF9DA04B0BDE8F8437047C04635070200240702002DE9F04788B000AC8146884617461E46B3
S3510000293C1098002200A90A70162B18D10125601C0CE009F00701303100F8011B4FEAE8014FEAD90949EA487988466D1C9D42F0DD00A890F9161001F03101817536E0142B18D1012504F1010A11E04846A7
S3510000298841460A2200231BF061FA30300AF8010B484641460A2200231BF060FA814688466D1CB542EBDD1BE00125DFF85CA0DFF85CC0611C12E0002809F00F0202D01CF9022001E01AF9022001F8012BE1
S351000029D44FEA28124FEA191949EA087990466D1C9D42EADD354600E06D1E60573028FBD02DB96D1C03E060576D1E07F8010B002DF9DA08B0BDE8F0477047C0463507020024070200DFF84C20126880B210
S35100002A2005281FD8DFE800F012161A03080DD2F88002C2F880127047D2F88402C2F884127047D2F88802C2F888127047D269506F51677047D269906F91677047D269D06FD1677047002070473804FF1F3E
S35100002A6C2DE9F04707460E4615461C464FF00009DFF8E000D0F8008001B10AB90C2066E000203A464FF4806192F900303A2B02D109F1010900E01BB1401C521C491EF3DCB9F1010F01D1012801D10C2025
S35100002AB84FE008F5167001F0BFFAD8F8740220B908F51D70002103F0C5F8D8F8749208F51D7A10E03846D9F808104FF4806219F0D9FB30B908F5167001F0E4FA4FF420602FE0D9F80090D145ECD108F5F5
S35100002B04167001F0D9FA2C2001F0AAFD814608B9042020E00F2101F0C9FDC9E90276C9E904540898C9F818000998C9F81C000A98C9F820000B98C9F8240008F5167001F07DFA08F51D70494603F08CF80D
S35100002B5008F5167001F0B2FA0020BDE8F04770473804FF1F08B584B0DDF818C0CDF800C0DDF81CC0CDF804C04FF0000CCDF808C0DDF820C0CDF80CC0FFF770FF04B0BDE808407047DFF81000006800F58A
S35100002B9C16700121DFF808301847C0463804FF1F81420000DFF83C10096880B2052816D8DFE800F00C0F12030609D1F880027047D1F884027047D1F888027047C869406F7047C869806F7047C869C06FF7
S35100002BE8704700207047C0463804FF1F38B50446DFF86410096808B90C202AE0088B08B10D2026E0CD6901F079FCA16846F67130C7F27340814203D001F054FC1E2018E040F22920A86068682968016004
S35100002C34486004F11000A863E16811F00801294602D001F003F801E003F00CF8FDF700FC01F03AFC0020BDE8384070473804FF1F38B505460C4608B91E2029E001F048FCA96846F67130C7F273408142F5
S35100002C8003D001F023FC1E201CE0288B18B901F01DFC0F2016E054B105E005F1100003F003F800F0B5FD288B0028F6D105E005F1100002F0F9FF00F0ABFD01F007FCFDF7B4FB0020BDE838407047000018
S35100002CCC38B50546DFF878100C6818B901F0F8FB0C2031E0208B08B10D202DE001F00CFCA96846F67130C7F27340814203D001F0E7FB1E2020E00020A86009E005F1100002F0CCFF00F07EFD01F0DAFB1C
S35100002D1801F0F4FB288B0028F2D16868296801604860B4F82001401EA4F8200101F0CAFBFDF777FB284601F037FD0020BDE838407047C0463804FF1F70B50646DFF870100C6830B1082804D00C2000F059
S35100002D6459FB00202BE0208B20B10D2000F052FB002024E01C2001F0F9FC0546F8B1112101F094FCEE6005F11000002102F064FF46F67130C7F27340A86001F0B1FBD4F8180120B904F58C70002102F04D
S35100002DB055FF04F58C70294602F056FF01F086FB2846BDE8704070473804FF1F70B506460D4600B109B900206CE0036845F20072CFF28642934204D8436840F2E732934201D900205EE000220A80DFF815
S35100002DFCC03002E00A88521C0A800468B1F800C00CF1010253F822209442F3D2DFF8A00050F82C00241A0CF2B270088080B200F06BF801216980342100FB01F2DFF884108A1802E06988491C69806B8867
S35100002E4852F823108C42F7D2342100FB01F2DFF86800591E801850F82100241A204645F28011C0F201011BF0EFF981B245F28010C0F201004843241A481CA88020464FF461611BF0E1F9E88081B24FF4E7
S35100002E9461604843241A20463C211BF0D7F9288181B23C204843241A6C817068A8810120BDE870407047C046CC07020064070200DFF808100968C1F8800170473804FF1FDFF808201268C2E96101704778
S35100002EE03804FF1FDFF808100968C1F8700170473804FF1FDFF808100968C1F8780170473804FF1F10B5044664211BF093F849B920464FF4C8711BF08DF809B901200AE0002008E0E10FC1EB847011EB09
S35100002F2CB07001D1012000E00020BDE8104070473EB50446DFF84C100D684068B0F57A7F0CD34FF47A711BF07DF921680818206060684FF47A711BF075F96160204600AC2146FEF73BF901F0C7FA2046C8
S35100002F7805F5A67105F5AC72FEF70EF901F0A2FABDE83E407047C0463804FF1F70B5DFF8BE000468D4E95301401C41F10001C4E9530101F0ABFAD4F8841121B1D4F888018847C4F8540104F5A670FEF752
S35100002FC429F9B4F86C61002E3AD0D4F86401761C34E00568D4E953CE426C836CB2EB0C0173EB0E0101D2012108E0BCEB02017EEB030101D2012100E00021494200291FDBB4F86C11491EA4F86C11416828
S3510000301002680A605160816821F48072826012F480610AD022F480618160016CC26B0A605160826B1189491E118100F0E9FB2846761EC8D101F042FAD4F8100300B18047BDE8704070473804FF1F0000F0
S3510000305C38B50546E8B1DFF84000046801F04CFA04F5A6732A4603CB03C218681060D4F8841119B1D4F888018847A860284604F5AC712A46FEF7DEF801F01AFA2846FEF7BDF8BDE8384070473804FF1F31
S351000030A8DFF810000068D0F878114FF47A70B0FBF1F070473804FF1F3EB5054600AC2046FFF7C8FF20462946FEF706F8BDE83E4070470000F8B506460D4600B109B90020A6E08089B0F57A7F0DD34FF48E
S351000030F47A711AF09DFF718980B208187081B0894FF47A711AF094FFB18170893C280BD33C211AF08DFF318980B20818308170893C211AF085FF718130893C280BD33C211AF07EFFF18880B20818F080AB
S3510000314030893C211AF076FF3181F08818280BD318211AF06FFFB18880B20818B080F08818211AF067FFF180B088012801D2002062E070880C280BD90C211AF05BFF318880B20818308070880C211AF041
S3510000318C53FF7180318840F2B270814200D23080DFF8A0400D273088FFF7AEFEB28800FB07F37188E318CB5C9A4213D9D01AB080481C708080B20C28EDD90C211AF034FF318880B20818308070880C2121
S351000031D81AF02CFF7180E0E7348840F6BF039C4201D9002024E0A4F2B274DFF8503053F8243034244443DFF84800491E001950F821001B18511E45F28010C0F2010048431B18F1884FF4616048431B187A
S3510000322431893C2048431B1870891B182B60B08968600120BDE8F8407047C04648070200CC0702006407020038B50546B8B1DFF83400046801F054F904F5A6732A4603CB03C218681060D4F8841119B1F8
S35100003270D4F888018847A86001F028F92846FDF7CBFFBDE8384070473804FF1F3EB5054638B100AC2046FFF7D9FF20462946FDF71FFFBDE83E40704710B50346DFF82E10096818B90C2000F0AFF80DE097
S351000032BCCC6904F1440203CB03C21868106001F01BF9204600F008F801F0FAF8BDE8104070473804FF1F00002DE9F0410546DFF87A10096801F5B273B1F86C410CB3D1F8642104F1010C19E0576CD2F81F
S351000033084880D0F844E0866CBEEB070476EB080401D2012408E0B7EB0E0478EB060401D2012400E000246442002C04DA13461268BCF1010CE2D1426800681060426001F5B27019462A4602F065FCA86851
S3510000335440F48070A860FDF77BF8BDE8F0417047C0463804FF1F000070B50646DFF832100C6818B90C2000F04DF80EE0E56901F0BFF8304604F5A67105F14402FDF75EFF2846FFF7A5FF01F097F8BDE853
S351000033A070407047C0463804FF1F000038B5DFF834100C6898B1E56905F14401FDF790FF01F0A0F805F1440004F5A67105F14402FDF73EFF2846FFF785FF01F077F8BDE8384070473804FF1F0CB40020AD
S351000033EC00A90870DFF81410096800AAC96989698A4200D201200CBC7047C0463804FF1FC26D01B102B9C16510467047DFF828100A68118B11B1516BCB6801E0D169CB6D00B133B9118B11B1516BC860C7
S3510000343801E0D169C86518467047C0463804FF1FDFF808000068C069C06870473804FF1F70B50446DFF850100D6808B9E8691FE0E96D884202D105F1500019E001F046F8D5F80401A0F16C06B5F80C11B0
S3510000348409E0F068A04203D101F01EF8304609E0F06EA0F16C060846491E0028F1D101F013F80020BDE870407047C0463804FF1FDFF814000168088B10B1486BC0687047C869C06D7047C0463804FF1F62
S351000034D0F8B507461646A025DFF8B4000468B4F80C314FF6FE70834201D300204CE00D6022B13046A021FDF77FFF1AE0A02001F00FFA064618B1384601F02AFA30610EB9304639E030690028304603D1E0
S3510000351C01F048F9002031E0242101F0C3F83069252101F0BFF8D4F8100185B2D4F81421D4F88C0145EA0040F06002F16C010AB904F5827104F5827006F16C0202F060FB334604F582711A46D86EA0F10D
S351000035686C036D1CADB205B901258B4203D0D86880B2A842F1D0C4F81421C4F810513046BDE8F8407047C0463804FF1FF8B50446DFF85000056805F5987000F04DFDD5F80401A0F16C06B5F80C7110E0EB
S351000035B4B06E00692146322218F06EFE28B905F5987000F079FDF0680BE07F1EF06EA0F16C060FB1002EEBD105F5987000F06CFD0020BDE8F84070473804FF1F08B5FFF731FF08B1806E00E00020BDE843
S351000036000840704700B1C0687047000010B50C46FFF722FF20B91220FFF7FEFE002004E0D0F88410C0F884400846BDE81040704710B50446DFF844100A68C068C0F30F41D2F88C01814203D01220FFF7FC
S3510000364CE5FE11E000F058FFA068022805D100F037FF1120FFF7DAFE06E0204600F0D2F800F02EFFFCF7DBFEBDE810407047C0463804FF1F08B5FFF7E9FE00F003F8BDE80840704708B5FDF789FC806D9D
S35100003698BDE80840704700002DE9F84F84B082468B4602929946DDF83880DFF840110C68C268D4F8FC108A4208D904F52F71884204D00E20FFF7A4FE00208BE0B8F1000F16D00F9DB5F5BC7F04D8022012
S351000036E4FFF798FE00207FE0284603A942460023FFF7ECFE064603982D1AB9F1000F13D0203D11E08568D82D00D8D82505F10F0020F00F0505F1200003B9284603A900221346FFF7D3FE064626B90A2059
S35100003730FFF772FE002059E00320B06037690FB903983718B9F1000F0ED03A46BC4620370423BAE80300ACE803005B1EF9D19246106840F0004010603846294600F044F8216ADAF80C00A1EB0011F1614C
S3510000377C31628889B084DAF81400B062B8F1000F03D0B06A40F02000B0628889009002980190304639462A465346FDF705FCF8B1C6F868A0DAF800007066D4F880027067D4F88402B067D4F88802F06713
S351000037C8C6F860B0B8F1000F0BD13046314600F065FFB9F1000F00D0203F3846314600F05DFF304604B0BDE8F84F70473804FF1F8908491C46F26B12C7F2743201E040F8042B491EFBD17047DFF8281071
S351000038140A68C369D3F804C0516A8B4200D9536202218160C0F804C0DCF800100160CCF8000058607047C0463804FF1F08B5DFF81C000068C069D0F8840000B18047002000F008F9BDE808407047C04607
S351000038603804FF1F10B50C46FFF7F6FD20B91220FFF7D2FD002004E0D0F88010C0F880400846BDE81040704708B5FFF7E5FD20B91220FFF7C1FD002001E0D0F88000BDE8084070472DE9F843DFF8B611EE
S351000038AC0D6840B1C0F30F42D5F88C1189B28A4201D01220CBE0FFF7C9FD074618B105F15001884201D11220C1E005F5987000F0B1FB00F011FEB968092907D100F0F0FD05F5987000F0E4FB0020B0E093
S351000038F8022907D1E869874224D078683968016048601FE001F48070002810D01AD07868396801604860B5F86C01401EA5F86C01B86820F4807040F00300B8600AE011F4007007D07868396801604860D2
S35100003944B96B0889401E0881B86810F4806007D0386CF96B01604860B96B0889401E08810920B86000F0B0FD0026102405EB8600D0F8181209B138468847761C641EF5DCF86886B2EC69B86A10F0200052
S351000039901AD13846002100F09DFE804611E03846414600F097FE8146BC4204D0404605F1500100F077FEB84502D0404600F0F8FEC846B8F1000FEAD14FF00040F860B5F80C01012806D10120C5F8100188
S351000039DC0020C5F8140109E0D5F81001B04205D9C5F81061386F6C38C5F81401386FF96E01604860B5F80C01401EA5F80C0105F5987000F055FBA74216D100F075FD78683968016048603846FDF7C4FABE
S35100003A28B86A10F0200007D1384605F1500100F035FE384600F0B8FEFCF7F0FC3846FDF7B3FAB86A10F0200002D1384600F0ACFE0020BDE8F8437047C0463804FF1F00000021DFF804301847A53800007C
S35100003A7438B50024DFF866C0DCF800E011F0004C04D01520FFF7C6FC002024E078B1FF2804D91320FFF7BEFC00201CE0DEF88CC1604504D01320FFF7B5FC002013E00093084611460022134600F01CF8A0
S35100003AC0054648B1C46800F01DFD2846FFF7A0FE00F0FCFCFCF7A9FC2046BDE838407047C0463804FF1F000008B50023FFF7C2FFBDE80840704700002DE9FE43894690461F46DFF862100C6860B100268E
S35100003B0CD4F89C5100E02035296809B18142FAD1286828B9002503E04D46D9F81890012625B91020FFF772FC002013E004F5987000F080FACDF8008001972846E169C9684A463346FFF7A6FD054604F558
S35100003B58987000F0AFFA2846BDE8FE4370473804FF1F000038B5DFF8CC100C6840B1C0F30F42D4F88C1189B28A4201D0122056E0FFF766FC054618B104F15001884201D112204CE0E16988420AD1208B1D
S35100003BA428B1FCF79EFDDFF89410816140E0FFF745FE3DE000F0A4FC6969DFF880004864A96801F48070002810D028D06868296801604860B4F86C01401EA4F86C01A86820F4807040F00300A86018E009
S35100003BF011F4007008D06868296801604860A96B0889401E08810CE040F201400140814207D1286CE96B01604860A96B0889401E0881A86810F0010002D02846FFF700FD00F04CFC0020BDE83840704718
S35100003C3C3804FF1F413800000021DFF8043018476D3B000010B50A460146D0F800C003895C1CD369B3F80EE007E0DCF81C30DB89734504D86146DCF800C0641EF5D101F0CFFFBDE81040704770B5DFF88A
S35100003C88CA00046843F6F83020824FF4C570608208202060012060600221E1810F216181A181D4F89C1109B900F0C2F90120C4F80001FDF7A7F904F15001E161E08A6083E08A8884D4F88C014FF6FF765F
S35100003CD446EA0040C8600320886004F592700025002101F0B9FF04F5B270002101F0B4FFD4F89C21002005E0D1688D4200D20D46401C2032116809B1B042F5D3C4F8FC500320C8F20000C4F8BC02E0207C
S35100003D20C4F8C402DFF82E00C4F8CC02DFF82A00C4F8C002681CC4F8C80204F58270002101F08CFF0120C4F81001BDE870407047C0463804FF1F2104FF1F2D4500000000DFF80810096808817047C0467A
S35100003D6C3804FF1F08B5DFF822100968082804D30C20FFF74BFB002003E001EB8000D0F88C02BDE808407047C0463804FF1F000070B506460D46DFF838100C68082804D30C20FFF733FB00200FE000F08F
S35100003DB8A5FB04EB8600D0F88C4214B9C0F88C5202E00DB9C0F88C5200F07CFB2046BDE8704070473804FF1F2DE9F04107460E461546541ADFF85A30D3F80080082801D201B122B90C20FFF70BFB0C20F9
S35100003E041EE000F07DFB08EB8700D0F88C02B0420AD100F059FB192012E00059B04203D100F052FB19200BE00028F6D108EB8700D0F88C12C0F88C62296000F045FB0020BDE8F04170473804FF1F000045
S35100003E502DE9F04180460D46561A1924DFF852301F68082801D201B122B90C20FFF7D4FA0C201BE000F046FB07EB8801D1F88C22AA420ED1A859C1F88C020024AC510AE09159A94204D1885990510024BB
S35100003E9C8C5102E00A46002AF4D100F011FB2046BDE8F04170473804FF1F0000FEB5054640680F3020F00F04DFF860010460DFF860012060DFF85C01206020464FF44671FDF78CFA04F5C673062203CD79
S35100003EE803C3521EFBD1C4F89041D4F8940120F00F00C4F89401FFF7C1FE00F01FFC08B100F096F8D4F8B45115B1D4F8986116E0D4F89801D82802D2D820C4F89801D4F8980100F11006304600F01EFC6D
S35100003F34054610B9042000F07DF82846022100F0B5FB28463146FFF755FCA819401E20F00F00E063D82000F009FC054610B9042000F068F82846012100F0A0FB05F1D800401E20F00F01A1F16400606628
S35100003F80216605F10F0020F00F00A066616EDFF8A4000160FDF770F808B100F04DF804F5DE70012100F06CF904F59870012100F067F909F05BF808B100F03EF800220092019204F52F70E169C96801236F
S35100003FCCFFF768FB074610B9042000F02FF83846FFF718FCD4F89C61002515E0706910F0010010D0009501953046E169C968B2690023FFF74FFB074610B9042000F016F83846FFF7FFFB2036306800287E
S35100004018E6D1FCF701FA0020BDE8FE407047C0463804FF1FE0090200DC0902000C23FF1F08B500F063FAFEE738B50446DFF870100D68298B09B10D202EE0416947F26D30C6F67740814201D01F2025E012
S3510000406400F04EFAA069002810DCE96940F22B40886004F1080088634A6851F83C3B13605A6001F0EFFDFCF7E3F901E0401EA061616947F26D30C6F67740814203D000F013FA1F2002E000F00FFA00208B
S351000040B0BDE838407047C0463804FF1F38B50546DFF874100C68416947F26D30C6F67740814201D01F202BE000F014FAA869002820DB288AF0B105F1080001F0DDFD3C38816811F480710ED04168026820
S351000040FC0A605160B4F86C11491EA4F86C11816821F4807141F00301816000218163FFF779FBFCF784F902E0A869401CA86100F0CFF90020BDE838407047C0463804FF1F10B50446416947F26D30C6F61B
S351000041487740814201D000200CE000F0D7F9A069002801DC002402E0401EA061012400F0B1F92046BDE810407047000070B50646DFF89400046800F0C1F9716947F26D30C6F67740814203D000F09CF99A
S351000041941F2038E00020706104F5B67517E006F1080001F07FFD3C38816811F480710CD0416802680A6051602988491E2980816821F4807141F003018160FFF71FFB308A0028E4D1D4F8241104F5927044
S351000041E00CE0B14209D17068316801604860B4F82C01401EA4F82C0102E009688142F0D100F064F9FCF711F90020BDE8704070473804FF1F0021DFF8043018477541000070B506461546DFF854201468DF
S3510000422C81610830002101F013FD00F065F99DB9D4F8241104F5927007E0B14204D100F03FF94FF482600FE009688142F5D104F59270314601F002FD47F26D30C6F67740706100F02DF90020BDE8704078
S351000042787047C0463804FF1F08B500221346FFF7CBFFBDE80840704708B501220023FFF7C3FFBDE80840704738B50546DFF830000068C46900F02AF9A0680B280AD00B20A060A56320464121FFF7A4F859
S351000042C4606821680160486000F0FEF8BDE838407047C0463804FF1F2DE9F84307460E46814201D20C202CE0DFF85E201468DFF85E20C4F8F020DFF85A20A262081A401CC00800F101094FEA890000F03A
S35100004310A9F9054608B9042015E04FF00308032100F0C6F9A563E7622663A4F81493A4F81683002001E045F829004946A9F101090029F8D10020BDE8F8437047C0463804FF1F9D050000A14200000000FD
S3510000435C2DE9F04180460F461646DFF890100C68A16B21B91820FFF751F800203BE0E16A884202D3216B884204D91420FFF746F8002030E000F0B8F8A16BE06AA8EB0000C00851F8205000E02D6915B1D3
S351000043A828684045FAD1C5B9142000F0DDF90546232100F079F9A16BE06AA8EB0000C00851F820002861A16BE06AA8EB0000C00841F82050DFF81C4000E06C68C5F800806F60EE6000F06EF82046BDE8DB
S351000043F4F04170473804FF1FA142000038B50446DFF858100D68A96B21B91820FFF702F800201FE0E96A884202D3296B884204D91420FEF7F7FF002014E000F069F8A96BE86A201AC00851F8205000E080
S351000044402D6915B12868A042FAD100F03FF80DB1686801E0DFF80C00BDE838407047C0463804FF1FA14200000020704738B50446DFF854100D68A96B21B91820FEF7CCFF00201EE0E96A884202D3296BB9
S3510000448C884204D91420FEF7C1FF002013E000F033F8A96BE86A201AC00851F8205000E02D6915B12868A042FAD100F009F80DB1E86800E00020BDE8384070473804FF1F08B5DFF82E000268D169486D3E
S351000044D870B1401E4865D069406D48B9108B20B1506B8068FCF7DEFE02E0508BFCF7DAFEBDE8084070473804FF1F000010B5DFF820000468E069406D10B9E08AFCF7CAFEE169486D401C4865BDE8104012
S351000045247047C0463804FF1FDFF846000168D1F8AC02401CC1F8AC02D1F8AC020028F6D1D1F8B002401CC1F8B002D1F8B0020028EDD1D1F8B402401CC1F8B402D1F8B4020028E4D1D1F8B802401CC1F827
S35100004570B802DEE7C0463804FF1F00002DE9F04780460D46DFF8D8000468FFF7BBFFD8F8141047F26E60C6F66540814203D0FFF795FF392058E0D8F8180040EA0506B8F81000002849D0D8F8080008F1ED
S351000045BC080A04F5B6774FF000093EE0A0F13C050468A96A11F0800105D0D5F89C2002EA06018A4207D0A96A11F080012CD1D5F89C10314228D04168006808604160BAF80800401EAAF80800A86810F4E2
S3510000460880700CD068682968016048603888401E3880A86820F4807040F00300A860C5F838902846FFF7F0F8D5F89C0000EA0601C5F89C10D8F820000840864320465045BED1C8F81860FFF73DFFFBF78A
S35100004654EAFE0020BDE8F0477047C0463804FF1F08B5DFF818100A6802F15001D2F8E822012300F093F9BDE8084070473804FF1F08B50246DFF814000368084603F15001012300F083F9BDE80840704713
S351000046A03804FF1FA0F10C02C86810817047000018B10C38418101207047002070470000DFF80C000068D0F8E802C06A7047C0463804FF1FF8B50746DFF86400046819B9D4F8E852EE6804E0A1F10C0644
S351000046EC756830683618FFF707FF6A6912E03189F86880B281420BD100E092680AB1B242FBD3B24204D0FFF7DBFE06F10C000DE03068361828698642E9D32D68EE68D4F8E8028542E1D1FFF7CBFE00203B
S35100004738BDE8F8407047C0463804FF1F08B5DFF82400026802F54670C2F8E80200F13001D2F89421521A00F09BF80020BDE808407047C0463804FF1F08B5DFF818100A6802F15001D2F8E822002300F0BB
S351000047840DF9BDE8084070473804FF1F08B50246DFF814000368084603F15001002300F0FDF8BDE8084070473804FF1F38B5DFF8E0100A6820B90120FEF72CFE012064E0A0F10C056C68A16846F27050D0
S351000047D0C6F66D40814204D03820FEF71DFE382055E02989D069C06880B2814208D04FF6FF70814204D00320FEF70EFE032046E0FFF780FE6069616909B18D420ED260692A68A918814205D10168511813
S3510000481C29608168A96000E0A860656100210CE081688D4200D309B9012106E0E161FFF747FEFFF761FEE069DFE7A9B12A68AB1881688B4204D109685118296081688968A96002688118A94205D1296809
S3510000486851180160A968816000E085606069A0616069E06160692062E0686062E068A062FFF720FE0020BDE8384070473804FF1F38B50446DFF85C301D688A1822F00F0202610F3121F00F03C360C362B6
S351000048B4D11A196000219960586043618361C3610362FFF71DFED5F8DC0220B905F53770002101F0C1F905F53770214601F0C2F9FFF7F2FD46F27050C6F66D40A0602046BDE838407047C0463804FF1FD5
S3510000490008B50246DFF8140003680846D969012300F046F8BDE808407047C0463804FF1F08B5DFF818100A68D169D2F8E822012300F036F8BDE808407047C0463804FF1F08B50246DFF8140003680846F9
S3510000494CD969002300F026F8BDE808407047C0463804FF1F08B5DFF818100A68D169D2F8E822002300F016F8BDE808407047C0463804FF1F08B5DFF81820136800220092DA69D3F8E83200F075F8BDE81C
S35100004998084070473804FF1F2DE9F843884617461E460025926846F27051C6F66D418A4204D03820FEF72CFD002059E000F10C09B9F1100F01D24FF0100909F10F0020F00F09FFF793FD7C6942E0BC61CE
S351000049E4FFF772FDFFF78CFDBC697869844200D125462068484533D3A0EB0902102A0AD304EB090144F809204F60A0688860A160C4F8009001E08146A1687869844201D1796100E0A9607869B861F86143
S35100004A303862F8687862B862D8F80C002081002060816760F86A844200D9FC62FFF73EFD2EB104F10C00A9F10C01FCF7CDFC04F10C0009E02546A468002CBAD1FFF72EFD0420FEF7D1FC0020BDE8F8430F
S35100004A7C704700002DE9F0470F4616461D4600249A6846F27051C6F66D418A4204D03820FEF7BCFC002064E000F10C08B8F1100F01D24FF0100808F10F0020F00F08FFF723FD6869A7F10C0A0AEB08097D
S35100004AC849E0A861FFF7FEFCFFF718FDA8696969884200D10446036800F11001514538D8C118494535D3A7F10C02A2EB0009A3EB0801A1EB0901C0F80090102908D302EB080342F808105D608168996077
S35100004B14836001E088448368A360C2F8008093606969A961E9612962E9686962A962F1681181002151815560E96A884200D9E862FFF7C2FC089820B13846A8F10C01FCF751FC384609E0044680680028AF
S35100004B60B3D1FFF7B3FC0420FEF756FC0020BDE8F04770472DE9F0470446DFF8B6100968D1F8F451002D50D0D0F88C604FF000081CE0F2682AB1D2F894103089081AC2F89400376808E0D7F8009087F894
S35100004BAC0B8007F1140000F0BDFC4F46002FF4D130463669C0F80080C0F81080A0F81480002EE0D10020C4E923006E68286800F1010821E0B18A46F6675081421BD1356817E0D5F804A005F11007A868FE
S35100004BF800F101090BE03869A04207D1B87A28B9F87A18B907F1140000F08EFC5744B9F10109F0D12D68002DE5D11C36B8F10108DAD1BDE8F0477047C0463804FF1F00002DE9F84F82468B460092DFF8C5
S35100004C442E120C68D4F8F45125B91820FEF7E2FB002008E128B940F21670FEF7DBFB002001E1A0F11406338946F667518B4205D040F21670FEF7CEFB0020F4E0B17A09B9F17A29B140F21670FEF7C4FBFD
S35100004C900020EAE0C2F30F23002BD4F88C1106D1CBB24188C9B241EA0321418009E08B4207D000F03DFC4FF4E260FEF7ADFB0020D3E0C2F30709B9F1000F08D1504600F02FFC4FF4E260FEF79FFB0020DE
S35100004CDCC5E0A86900EB4917B88A484500D0002747B9504600F01EFC40F21370FEF78EFB0020B4E0FFF700FC798919B13889884280F09E80F88A012840F09080F9688868C0B2072804D0052831D1886B8E
S35100004D2848452ED106F11400C1F898003161886810F480700ED048680A6802605060B4F86C01401EA4F86C01886820F4807040F0030088600846FEF757FDB96909B1F8698847BBF1000F09D0208B002830
S35100004D7440F07680E1690D208860FBF76DFB6FE0FBF751FB6CE000229AF8060010F01F0336D0D1F89880B8F1000F31D010F010030AD198F8063013F0100929D103F00F0300F00F00834223D2C1F898A040
S35100004DC0AAF114063161A8F11406002030610122B8F802100098884214D0C1F30709A86900EB4917798969B1388988420AD3FFF76DFB404600F09CFB40F21770FEF70CFB002032E03846314600F036F8C2
S35100004E0CF96821B1D1F89400401CC1F89400B96909B1F8698847BBF1000F1DD0208BD8B9E1690D208860FBF713FB15E038463146002200F01BF8B96971B1F86988470BE0FFF73EFB40F21770FEF7E0FAA7
S35100004E5806F1140000F068FB002002E0FFF732FB0120BDE8F84F7047C0463804FF1F000010B504682CB900224A600A600160416038E08B7E13F0100C00D13AB102680A6000224A600268516001602BE0F0
S35100004EA413F00F0C21D0002306E0A27E02F00F02944503D823462468002CF6D13BB902680A6000224A6002685160016014E03CB942684A6000220A604268116041600BE04B600C601960616006E0426884
S35100004EF04A6000220A604268116041600289521C02810120C872BDE81040704701214288DFF804301847C046394C000000214288DFF804301847C046394C00002DE9F84F06468B4615461C464FF00009BB
S35100004F3CC3F80090DFF874120A68118B31B10D250D20FEF763FA256000202CE1D2F8F47137B918251820FEF759FA2560002022E1D2F81C80002853D1D8F88C0040B940F2137540F21370FEF749FA256071
S35100004F88002012E1FFF7BAFAD8F89400C0B90720C8F80800C8F83860C8F8989015B9FBF759FA07E0022D584602D1FEF7DBF901E0FEF776F9D8F898900020C8F89800F1E0D8F88CA022E0BAF80800E8B1D4
S35100004FD4401EAAF80800DAF800100A68CAF800201AB90020CAF8040001E000205060DAF80C2022B1D2F89400401EC2F8940001F114090020C872C1F81080CDE0DAF810A0BAF1000FD9D1C7E0C0F3070959
S351000050200112D2F88C01814202D1B9F1000F08D14FF4E2654FF4E260FEF7EEF925600020B7E0B86900EB491ABAF81400484508D040F2137540F21370FEF7DEF925600020A7E0DAF80C0050B1404508D048
S3510000506C40F2127540F21270FEF7D0F92560002099E0FFF741FABAF80800002840F07380DAF80C0010B94FF0000989E00520C8F80800C8F838900020C8F8980015B9FBF7D7F907E0022D584602D1FEF722
S351000050B859F901E0FEF7F4F8D8F89890B9F1000F4FD0B9F80210B1424BD0BAF80800002847D0C9B2B86900EB4114618911B12089884238D2A9F114010A8946F66750824206D040F21670FEF78BF94FF0B4
S35100005104000930E020460122FFF7B4FEE16821B1D1F89400401CC1F89400BAF80800401EAAF80800DAF800100A68CAF800201AB90020CAF8040001E000205060DAF80C2022B1D2F89400401EC2F89400B1
S3510000515001F114090020C872C1F8108005E040F21770FEF759F94FF000090020C8F898001CE0401EAAF80800DAF800100A68CAF800201AB90020CAF8040001E000205060DAF80C2022B1D2F89400401E85
S3510000519CC2F8940001F114090020C872C1F81080FFF78EF94846BDE8F84F70473804FF1F38B584B0054659B1084601AC2146FCF789F828462146022200ABFFF7A9FE04E001A9002200ABFFF7A3FE04B086
S351000051E8BDE83840704700002DE9F8438146884617461E46DFF828110D68D5F8F441082805D240F20570FEF703F9002084E044B900F0EAF9D5F8F4411CB9FEF7F9F800207AE0FFF76BF922692068824218
S3510000523417D36568002246F6675004E0A98A814204D11C35521C21688A42F7D3206882420DD1FFF739F940F20270FEF7DBF800205CE0501C206161681C2050430D1846F66750A882A5F810904FF0000969
S35100005280A5F81290FFF722F9C5F80090C5F80C90C5F80490A5F80890A5F80A9017B9A5F8168005E01EB94FF6FF70E88200E0EE820898A861B8F1000F0CD02846414600F035F8288930B90020A8820420A5
S351000052CCFEF7A4F8002025E06F8208980A2820D1FFF712F9A36813B9A560E56017E0198A288A814202D36B60A56010E05A6809E0118A288A814202D21346526802E05D606A6001E0002AF3D10AB95D6006
S35100005318E560FFF7D7F82846BDE8F8437047C0463804FF1F2DE9F84381468846008A233020F00F0606FB01F01F30FFF715FA074600283BD00C21FFF7AFF900233B607E60C7F8088007F11F0020F00F043E
S35100005364FC60254608F1010C46F6675201210CE02B602A81A972EB72C5F80C902B61BCF1010F02D9A81928600546BCF1010CEFD1FFF7B6F8D9F800003860C9F80070D9F80C002860C9F80C40B9F8080085
S351000053B04044A9F80800B9F80A004044A9F80A00FFF784F8BDE8F8437047000008B54FF0050CCDF800C0FFF70BFFBDE8084070472DE9F8438146884617461E46DFF8FE000468D4F8F45145B900F0FAF87C
S351000053FCD4F8F4511DB9FEF709F800206DE0FFF77BF8B9F1000F1AD1A86900F58070082307E0828A99B28A4201D0894604E020305B1C69698B42F4D9B9F1000F12D1FFF747F840F21170FDF7E9FF0020A6
S351000054484DE06869814507D3FFF73CF840F21B70FDF7DEFF002042E0B9F1000F07D1FFF731F84FF4E260FDF7D3FF002037E0A86900EB4910818A494507D1FFF723F840F21170FDF7C5FF002029E0A0F845
S35100005494149000220260426002610281C782A0F80A8086610899C161012F0FD1E369C360D3F88C1021B9C3F88C00C3E9240206E0D3F890100861C3F8900000E0C260FEF7FBFFD4F88C01C1B2C9F30700A3
S351000054E040EA012080B2BDE8F8437047C0463804FF1F000008B50022009201220023FFF76FFFBDE808407047DFF820201268FF2801D90020704710B9D2F88C0180B2C2B2C8B240EA022080B27047C04663
S3510000552C3804FF1F38B5A0F11404218946F66750814203D00120FDF769FF1BE0A07A18B10320FDF763FF15E0E07A20B140F21A70FDF75CFF0EE0E5680120A0720020E072FEF7CAFFE8682060EC602889A0
S35100005578401C2881FEF7A6FFBDE838407047000038B50446DFF85C100968D1F8F41109B9182023E0818A46F66750814202D040F203701BE0FEF7AAFF21896089814211D1002020816082FEF785FF20680B
S351000055C403E00568FFF7F2F828460028F9D100202060A082A06103E0FEF776FF40F20470BDE838407047C0463804FF1FF8B5DFF81001066806F5DE70FEF720FD002840F07C80D6F8F40128B106F5DE7084
S35100005610FEF754FD002072E02020FFF723F8074628B906F5DE70FEF749FD042067E00921FFF73EF8D6F8A40110B90120C6F8A401D6F8A4111C204843FFF70CF8044630B906F5DE70FEF732FD40F2067080
S3510000565C4FE00B21FFF726F8D6F8A8114FF6FF70814204D34FF6FE70C6F8A80104E0012902D20120C6F8A801D6F8A801401C4001FEF7EAFF054648B906F5DE70FEF710FD2046FFF787F840F219702AE00B
S351000056A80A21FFF701F8786868B900203861B860F860D6F8A4013860D6F8A80178617C600024BD61002547F27330C6F66550F861C6F8F471DFF82800C6F8340206F5DE70FEF7E8FC14B12046FFF75EF879
S351000056F415B12846FFF75AF80020BDE8F84070473804FF1F754B000070B50646DFF8A8100C68D4F8F41121B91820FDF77BFE002046E0828A46F667518A4202D18169052905D040F20370FDF76DFE002060
S3510000574038E0018989B9418A79B14289C18A8A4200D351B9418AC28A4089101A80B2814200D901463046FFF7E1FDFEF7CBFEF5683DB9FEF7ABFE40F20170FDF74DFE002018E02868F0603089401E3081C5
S3510000578CFEF79EFE0021A972E972208B08B1296101E0E06928610020E8822883308AA8826020A87605F11400BDE870407047C0463804FF1F2DE9F0478146DFF886000068D0F8F861002E38D0F16847F213
S351000057D87420C7F26100814231D134682DE004F12C0547F2742AC7F2610A23E06868504522D1EF68A86800F1010817E0B968D9F80C00814210D13868A0420DD1FEF776FE206938602761E068401CE06097
S351000058243968B86808187860FEF74EFEA0683F18B8F10108E4D12D68002DD9D12468B442CFD1BDE8F0477047C0463804FF1F0000DFF80C1009685031DFF808301847C0463804FF1F2D5B000038B5DFF8F2
S351000058706E100B68A0F10C056A682868A9684018824202D040F6060026E0D86D814205D0D869C068814201D003201DE02C68FEF731FE216B47F27420C7F26100814204D0FEF70CFE40F601000EE00020B0
S351000058BCA860206928602561E068401CE0602968A86808186860FEF7FBFD0020BDE8384070473804FF1F0000F8B507460E46154647F27420C7F2610048608A6001F11F0020F00F04CC600EE0FEF7FEFDF3
S3510000590839692160A068081860603C61F868401CF860FEF7D7FDB868241828466D1E0028ECD1FEF7EBFDF86A3060FE62FEF7CAFDBDE8F8407047000038B50546DFF86E100968D1F8F8410CB918202DE005
S35100005954026B47F27421C7F261018A4201D00C2024E0416A022902D040F607001EE04169C068814202D040F6080017E0FEF7C0FD68682968016048602089401E2081FEF79BFD00202863E86A03E00468C2
S351000059A0FEF706FF20460028F9D12846FEF700FFBDE8384070473804FF1F00002DE9F0410E4615461C46DFF862201268128B22B10D20FDF721FD002023E020B90C20FDF71BFD00201DE01B3020F00F0737
S351000059EC07FB01F04B30FEF7BDFE804698B10721FEF758FE40463946324600F013F820B14046FEF7CFFE002005E00220C8F82400C8E907544046BDE8F0417047C0463804FF1F00002DE9F04107460E46C6
S35100005A381546DFF86A00D0F80080D8F8F84124B900F030F8D8F8F84134B338463C21FBF7CFFCBE6047F27420C7F2610038637D63FD607D6107F14B0020F00F02BA6306E0396911609068081850603A611A
S35100005A84921928466D1E0028F4D1FEF739FD2046394600F0E7F8FEF717FD0020BDE8F04170473804FF1F000038B5DFF872000468208B08B10D202EE004F5DE70FEF7BEFAD4F8F80128B104F5DE70FEF741
S35100005AD0F5FA002021E01020FEF7C4FD054628B904F5DE70FEF7EAFA042016E00621FEF7DFFDC4F8F85147F27420C7F26100E8602846002100F0AAF8DFF81A00C4F8380204F5DE70FEF7D2FA0020BDE827
S35100005B1C38407047C0463804FF1FC15700000000F8B506460D4628B940F60100FDF76EFC00206AE0016B47F27420C7F26100814205D040F60100FDF761FC00205DE0FEF7D3FCF068A8BB706A022828D118
S35100005B68F06930B3316A11B17069884221D2F469316A21B17069081A844200D90446706900197061FEF79EFCB06860431F30FEF7EBFD074640B10821FEF786FD304639462246FFF79BFE02E07069001B34
S35100005BB47061FEF7A5FCF06838B9FEF785FC40F60200FDF727FC002023E0346962682168A0680818824207D0FEF776FC40F60600FDF718FC002014E03161F068411EF1607069411AB069814200D9B16100
S35100005C00E868A0602660301860603069B062FEF75DFC04F10C00BDE8F840704770B504460E46154601B92646FEF76CFC618931B12089884203D3FEF749FC00200AE03068286035606E6045602089401CBF
S35100005C4C2081FEF73DFC0120BDE870407047000000604060002202814181704738B505460C46FEF749FC698931B12889884203D3FEF726FC00200DE068680168216068680460686860604C602889401CA8
S35100005C982881FEF717FC0120BDE838407047000038B50546FEF72AFC288918B9FEF70AFC00200AE02C6860682168016048602889401E2881FEF7FEFB2046BDE8384070474DF20001C4F20001086820F0F5
S35100005CE40100086000207047DFF804301847C046C1D80000DFF804301847C046CDD80000FEB507460E462420FEF728FE044610B94AF6016026E02421FBF76CFB38462146324601F0E3F90546B8B93846A1
S35100005D302146324600F086FB054680B9DFF82E000090DFF82E00019002943846DFF82610DFF82620DFF82630FCF704FF054615B12046FEF725FD2846BDE8FE407047796100007D610000855D00005160E0
S35100005D7C00000161000000002DE9FE4F8246894690460068446A816801E009F1010911F9010B0028F9D199F90000002840D112B94AF603604BE1206888B91420FEF7B2FD206010B94AF6016041E108207D
S35100005DC8FEF7AAFD606038B9FEF7EEFC4AF6016037E14AF6046034E1D8F80010206801600025606845605046216801F081F9009040B12068FEF7D8FC6068FEF7D5FC256065600DE05046616800F01AFB0B
S35100005E14009038B12068FEF7C9FC6068FEF7C6FC2560656000980EE1002704F1080504F1100612B94AF6036005E1206810B94AF6056000E15068012802D24AF60660FAE00220019004EB870080694946FC
S35100005E6016F0BAF910B94AF60460EEE07F1C0198401E0190F0DC002700E07F1C022F04D204EB870080690028F7D1022F02D14AF60760DAE01C20FEF743FD834618B94AF601600090D0E055F8270098B9FF
S35100005EAC2020FEF737FD45F8270018B94AF601600090C0E02C20FEF72DFD46F8270030B94AF601600090AFE04FF0FF30B7E055F82700CBF8000056F82700CBF80400CAF804B0D8F81400401C4000FEF759
S35100005EF813FD55F82710C86055F82720D168D8F81400401C01EB4000106155F82710C86818B94AF60160009081E0486155F82710C868886155F827000760B8F8021055F827008180B8F8001055F827004F
S35100005F44C180D8F8181056F82700C161D8F8081056F827008160D8F80C1056F82700C16056F827000760B8F8021056F827008180D8F80400411E56F82700816156F8271088694861D8F81C1056F827004D
S35100005F900162D8F8201001B9012156F827004162504655F8271001F0E5F90090B0BB504656F8271000F0A6FB009050BB484616F0ABF8401CFEF7ACFC04EB87029061D8B1002304E019F9011B9069C154D8
S35100005FDC5B1C99F900000028F6D1002004EB87018969C854B8F8021011F0020127D1504641F20111002200F0BBF820E0504656F8271000F017FC504655F8271001F036FA55F82700C068FEF7C5FB56F880
S351000060282700FEF7C1FB002046F8270055F82700FEF7BAFB002045F827005846FEF7B4FB0098BDE8FE4F70472DE9F047824601684D6A466805F1080705F11008E6B90220396811B14AF6086042E03F1D64
S35100006074401EF7DC5046696800F054FAD0BB5046296801F067F9A8BB6868FEF78FFB00246C602868FEF78AFB2C602AE03168D1F8009071680024002200F060FD5046716800F0C4FBF0B95046316801F07A
S351000060C0E3F9C8B905EB89008069FEF771FB05EB890084613068C068FEF76AFB3068FEF767FB7068FEF764FB3046FEF761FB47F8294048F829400020BDE8F0477047000038B50B464068D0F800C0DCF8CE
S3510000610C14400CB900202EE0DCF81800001B00EBD070401008D5DCF81050DCF80C402C1B04EBD47400EB64005208904200D91046002515E0DCF81420128823F8022BDCF814201580DCF81420941CCCF802
S351000061581440DCF81020944203D3DCF80C20CCF81420401E0028E7D1581ABDE83840704700207047F8B506460D461446D0F804C0092901D833D03AE041F20113C91A072935D8DFE801F0040A0E14181EBF
S351000061A42228DCF80410002200F0B0FB3EE0002100F0ACFB3AE0DCF80410002200F0D6FC34E0002100F0D2FC30E0DCF80410002200F00CFC2AE0002100F008FC26E0DCF80410002200F05EFC20E000215F
S351000061F000F05AFC1CE0152010600020506008209060002014E030462946224600F092FD074618B140F60921884209D130462946224600F009F840F60921884200D13846BDE8F8407047000038B50368F1
S3510000623C5B6A40684FF0000C08B1D0F80CC041F2111EA1EB0E010E2900F2E980DFE811F0100031003E00E700E700E70042008300E700E700E700E700E700B300DA00DA00DFF8BA01056815B94AF60B6059
S35100006288D3E04FF0000C46F20404C4F203042368A2FB030102FB0C110CFB03112A46002317F0A2FE4FF6FF71884202D94AF60660BBE0A060B8E04FF6FF70824202D94AF60660B2E046F20C00C4F2030073
S351000062D40260ABE0DFF85E014260A7E0DFF8560105681DB9104600F01FF9A0E046F2040EC4F2030EDEF80000A2FB0001B0FBF5F0401E4FF6FF71884202D94AF606608EE080B2CEF80000186910B1806AD8
S351000063208069A8B146F20402C4F2030211684FF6FF70814202D14FF6FF7201E01068421C28200CFB00F146F21800C4F203000A5046F20001C4F20301086840F00100086066E04FF6FF70824202D94AF648
S3510000636C066060E046F20400C4F203000260186910B1806A8069A8B146F20402C4F2030211684FF6FF70814202D14FF6FF7201E01068421C28200CFB00F146F21800C4F203000A5046F20001C4F20301B5
S351000063B8086840F00100086036E010B94AF60A6033E04FF6FF718A4202D94AF603602CE028210CFB01FE81680EEB810346F21801C4F203015A50806828B95EF80110DFF8460040F82C1046F20001C4F2C9
S351000064040301086840F0010008600FE046F20001C4F20301086820F47063100200F470601843086002E040F6092000E00020BDE838407047C0461023FF1F2C23FF1F0000002070472DE9F041074647F2EA
S351000064500004C4F204040068456A286A067841F23C00215841F480012150A4F58831086840F080000860DFF8A680D8F8100010F001001DD1286A006A0068FDF7EFFFC8F80C00286A006A0068DFF8861079
S3510000649C3A46FDF75DFFC8F80800286A016A03C9C9B20122FBF744F9D8F8100040F00100C8F8100046F20000C4F20300016821F040010160016821F44021016001680022282106FB01F300F110015A54D9
S351000064E80A469A5842F47F4210301A50585820F47F005850002E41F2180004D1215821F08001215003E0215821F4004121500020BDE8F04170471023FF1FD56C000000000020704730B585B0DFF8C611C9
S3510000653405460024019491F90020B2F1FF3F53D14AF6AA22C0F2020200920722049207E0049A521E0492009A0292009A52080092049AB2F1FF3F02D0009A9042F0D3049A521C04924AF6AA22C0F26A02C4
S3510000658000920922039207E0039A521E0392009A0192009A52080092039AB2F1FF3F02D0009A9042F0D3039A521C0392049A082A05D1039A0A2A02D14AF6066098E0029B019A934207D2049A082A04D02A
S351000065CC029A0192049A039252E0039A072A05D9039A921FD4B20722039249E0012447E046F20002C4F20302126802F00C02082A06D820D2042A35D82AB1042A0FD031E00C2A24D02EE04AF6AA23C0F29A
S35100006618020391F90020C2F1070223FA02F2019222E04AF6AA23C0F26A0391F90020C2F1090223FA02F2019216E04AF6AA23C0F26A0391F90020C2F1080223FA02F201920AE04AF6AA23C0F26A0391F91A
S351000066640020C2F1070223FA02F20192019A904202D94AF6066039E0039A0A70002141EA10410004019A002317F0B0FC029002994FF6FF70814202D94AF6066026E00298411E46F20400C4F203000160BA
S351000066B0001F016821F00C0101600268A10001F00C0111430160016841F001010160DFF82E100D60016821F4E04101600268039942EA01310160016841F023010160002005B0BDE830407047C046A9041C
S351000066FCFF1F1023FF1F00002DE9F84388464468E568C86900F48030B0F5803F02D04AF60C6084E0DFF80E01026872B1CA680168B2FBF1F100684843824202D04AF6066075E021610020606108E001201D
S35100006748206100206061C868FFF7ECFE002868D146F20007C4F20307386840F470603860A668DFF8C6000268386840F00100386046BBD8F808E04FEAEE7CD7F804900023AEFB09010EFB03110CFB0911A0
S35100006794002317F02BFCDFF89A1041F8250079684FF6FF70814202D14FF6FF7201E07868421C282005FB00F146F21800C4F203000A500120A06116E0D8F808904FEAE97ED7F804C00023A9FB0C0109FB5C
S351000067E003110EFB0C11002317F002FC2821694301EB860207F11801505046F20001C4F20301086840F001000860DFF82E2052F825100120B040084342F82500D8F81800C8F81400C8F828400020BDE8E7
S3510000682CF8437047C0461023FF1F2C23FF1F2423FF1F000010B54168C8688968E1B946F20404C4F2030423684FF6FF72934202D14FF6FF7401E02268541C282200FB02F346F21802C4F203029C50A2F197
S3510000687818031A6842F001021A600FE0282200FB02FC46F21002C4F203021CF8024001238B40DB43DBB223400CF80230DFF860404FEA800C54F82030012202FA01F123EA010144F8201054F80C1041B9FC
S351000068C40023282100FB01F246F21001C4F2030153548300DFF82C200220D15869B9401EFBDC46F20001C4F20301086820F0800008600021DFF8100001600020BDE810407047C0462423FF1F1023FF1FEA
S3510000691070B541680068406A036A1B7832F4803202D04AF60C605CE029BB9D00DFF8B84054F8231041F00106282103FB01FC46F21002C4F203020CF8026054F8231011F001013BD0DFF894104B5902F16E
S3510000695C08014CF80130103A116841F00101116000218068C06981612AE0886860B9DFF8700050F823C0282003FB00F246F21800C4F2030042F800C046F20000C4F20300026842F00102026000228A6131
S351000069A8282203FB02FC00F110021CF802300122896802FA01F141F00101C9B2194310300CF8001046F20002C4F2030211688020C0F20100084310600020BDE8704070472423FF1F2C23FF1F4168006823
S351000069F4406A006A007832F4803202D04AF60C60704759B9282100FB01F246F21000C4F20300115821F0FF0111503EE0D1F808C0BCF1000F0FDD282100FB01F346F21000C4F203001A58012101FA0CF177
S35100006A40C9B222EA0101195029E0282200FB02F346F21802C4F2030253F802C0DFF8423043F820C0A2F1140CDCF800304FF6FF72934202D14FF6FF7302E0DCF80020531C2822424346F21800C4F2030068
S35100006A8C1350A0F11802106840F00100106001208861002070472C23FF1F000070B541680068406A036A1B7832F4803202D04AF60C604FE029BB9D00DFF89E4054F8231041F00106282103FB01FC46F275
S35100006AD81002C4F203020CF8026054F8231011F0010138D0DFF87A104B5902F108014CF80130103A116841F00101116000218068C069816127E0D1F808C0BCF1000F0DDD2820434346F21000C4F20300B1
S35100006B241A5C012101FA0CF1C9B21143195414E0DFF8320050F823C0282003FB00F246F21800C4F2030042F800C0A0F11802106840F001001060002088610020BDE8704070472423FF1F2C23FF1F000025
S35100006B7041680068406A006A007832F4803202D04AF60C60704741B900222821414346F21000C4F203000A543DE0D1F808C0BCF1000F0EDD282100FB01F346F21000C4F203001A5C012101FA0CF1C9B248
S35100006BBC1143195429E0282200FB02F346F21802C4F2030253F802C0DFF8423043F820C0A2F1140CDCF800304FF6FF72934202D14FF6FF7302E0DCF80020531C2822424346F21800C4F203001350A0F128
S35100006C081802106840F00100106001208861002070472C23FF1F000010B54468C168626912B1501E606149E0A28812F004023ED0D0F808C0BCF1000F0FDD282001FB00F346F21000C4F203001A5C0121F1
S35100006C5401FA0CF1C943C9B21140195429E0282201FB02F346F21802C4F2030253F802C0DFF8563043F821C0A2F1140CDCF800304FF6FF72934202D14FF6FF7302E0DCF80020531C28224A4346F21801A1
S35100006CA0C4F203015350A1F11802116841F00101116001218161206A10B1616AFDF75EFCA06960610020BDE810407047C0462C23FF1F000008B50F2146F21400C4F2030001608162DFF82C00006808B1B1
S35100006CEC00F056FCDFF82400416809B14068804746F20001C4F20301086820F040000860BDE808407047C0464823FF1F1023FF1F022804D2DFF80C1051F82000704700207047C046000A02002DE9F04165
S35100006D38DFF8AC43154603685B6A4668186A077841F20910081A1B2800F2C281DFE810F01C003000390042006E007A0086009200C001C001C001C001C200E900C001C001110122013301C001C001C001B8
S35100006D84C001440163017D019601AB0116B14AF60960A3E1DFF850030168780021FA00F010F0030002D04AF6086097E1384600F025FC93E116B14AF609608FE13846294600F0C4FC8AE116B14AF6096038
S35100006DD086E13846294600F089FC81E116B14AF609607DE13846FFF799FFC16821F00301C160142D01D1C16817E00C2D04D1C16841F00101C16010E0062D04D1C16841F00201C16009E0022D04D1C168C3
S35100006E1C41F00301C16002E04AF606605AE1816841F01001816054E116B14AF6096051E13846FFF76DFF816821F01001816048E116B14AF6096045E13846FFF761FFC16841F00401C1603CE116B14AF625
S35100006E68096039E13846FFF755FFC16821F00401C16030E116B14AF609602DE13846FFF749FF25B9416A21F00401416223E1416A21F003014162202D04D1416A41F00F01416218E1102D04D1416A41F0A1
S35100006EB40E01416211E1082D04D1416A41F00D0141620AE1042D04D1416A41F00C01416203E14AF6066001E116B94AF60A60FDE0FDF70EFB3846FFF717FF8046B56803E03846B16800F0FCFA58F82500D3
S35100006F0010F08000F6D158F8250020F0400048F8250022680121B06800EB470001FA00F010432060FDF7D2FAD9E016B94AF60A60D6E0FDF7E7FA3846FFF7F0FE8046B56803E03846B16800F0D5FA58F8CF
S35100006F4C250010F08000F6D158F8250040F0400048F8250022680121B06800EB470001FA00F022EA00002060FDF7AAFAB1E094B216B14AF60960ADE04FF6FF70824202D94AF60660A6E03846FFF7C2FEB1
S35100006F988462A0E094B216B14AF609609CE04FF6FF70824202D94AF6066095E03846FFF7B1FEC4628FE094B216B14AF609608BE04FF6FF70824202D94AF6066084E03846FFF7A0FE04637EE016B14AF68D
S35100006FE409607BE03846FFF797FE016A21F0030101620DB9006A70E0012D04D1016A41F00101016269E0022D04D1016A41F00201016262E04AF6066060E016B94AF60A605CE03846FFF778FE3168C98827
S3510000703001F01F01022902D04AF60D6050E0016D21F470210165026D45F410011143016545E012B94AF6036042E016B94AF60A603EE03846FFF75AFE3168C98801F01F01022902D04AF60D6032E0006DFA
S3510000707C00F4702028602CE016B94AF60A6029E03846FFF745FE3168C98801F01F01022902D04AF60D601DE0016D41F40011016517E016B94AF60A6014E03846FFF730FE3168C98801F01F01022902D0B7
S351000070C84AF60D6008E0016D21F40011016502E040F6092000E00020BDE8F0417047C0464823FF1F3423FF1F0A620020704700002DE9F84306460D460068476A386A90F800804046FFF706FE044610B98C
S351000071140020C04315E100202968082906D80CD2042907D849B1042907D003E00C2901D1012002E04AF6066003E1396AC96809B940F00200396A096909B940F00400DFF8FA1151F82090404605F026FEA4
S35100007160396A4868042800F2CE80DFE800F0508703B0BEBE8B68B3F1FF3F29D146F60040C0F2DC20814502D30020A060BEE04008814502D32020A060B8E041F60030C0F2B700814502D34020A060AFE0FA
